:1000000023C032C031C030C02FC042C02DC02CC070
:100010002BC02AC029C028C027C026C025C0010285
:100020000000040000000000010204081020200469
:100030001008020202020202020202020000000094
:10004000380000000000370011241FBECFE5D1E0CA
:10005000DEBFCDBF20E0A0E6B0E001C01D92A93612
:10006000B207E1F75AD164C1CBCF61E08AE0E7C0C3
:1000700061E08AE01DD168EE73E080E090E076D028
:1000800060E08AE015D168EE73E080E090E06EC039
:100090001F920F920FB60F9211242F933F938F93BD
:1000A0009F93AF93BF938091610090916200A09164
:1000B0006300B09164003091600020E3230F2D377E
:1000C00020F44096A11DB11D05C023EB230F4196DE
:1000D000A11DB11D20936000809361009093620088
:1000E000A0936300B09364008091650090916600D6
:1000F000A0916700B09168000196A11DB11D809389
:10010000650090936600A0936700B0936800BF916C
:10011000AF919F918F913F912F910F900FBE0F90B4
:100120001F9018953FB7F8948091650090916600F4
:10013000A0916700B091680022B708B601FE05C023
:100140002F3F19F00196A11DB11D3FBF6627782FE3
:10015000892F9A2F620F711D811D911D46E0660F38
:10016000771F881F991F4A95D1F708958F929F9204
:10017000AF92BF92CF92DF92EF92FF926B017C0120
:10018000D1DF4B015C01C114D104E104F104E1F0C1
:10019000CED0C8DF681979098A099B09683E734087
:1001A0008105910580F321E0C21AD108E108F10828
:1001B00088EE880E83E0981EA11CB11CC114D104E6
:1001C000E104F10431F7DFCFFF90EF90DF90CF90A3
:1001D000BF90AF909F908F90089578948AB5826079
:1001E0008ABD8AB581608ABD83B7826083BF83B7C9
:1001F000816083BF89B7826089BF80B7826080BF1A
:100200003298319A309A379A0895823081F018F4F2
:10021000813051F00895833019F0843009F0089549
:100220008CB58F7D8CBD08958AB58F7702C08AB555
:100230008F7D8ABD08958CB580648CBD0895CF9361
:10024000DF9390E0FC01E85DFF4F2491FC01EE5C40
:10025000FF4F8491882349F190E0880F991FFC019A
:10026000EE5BFF4FA591B491845C9F4FFC01C5915B
:10027000D4919FB7611108C0F8948C912095822386
:100280008C93888182230AC0623051F4F8948C9157
:10029000322F309583238C938881822B888304C0EE
:1002A000F8948C91822B8C939FBFDF91CF9108950E
:1002B0000F931F93CF93DF931F92CDB7DEB7282FF5
:1002C00030E0F901E25EFF4F8491F901E85DFF4FF4
:1002D0001491F901EE5CFF4F04910023C1F08823D3
:1002E00019F0698392DF6981E02FF0E0EE0FFF1FC4
:1002F000E45CFF4FA591B4919FB7F8948C91611184
:1003000003C01095812301C0812B8C939FBF0F9058
:10031000DF91CF911F910F9108955FDF8CDFA5DEF4
:10032000C0E0D0E0A5DE2097E9F36ADEFBCF0895B8
:04033000F894FFCF6F
:00000001FF
