:1000000027C036C035C034C033C032C031C030C064
:100010002FC02EC02DC040C02BC02AC029C028C070
:1000200027C00000000000040302010000010204D8
:1000300008102040800402010101010101010101B9
:1000400002020200003B00380000003A00370000C6
:1000500011241FBECFE5D2E0DEBFCDBF20E0A0E679
:10006000B0E001C01D92A936B207E1F761D16BC1C2
:10007000C7CF61E08AE0EDC061E08AE023D168EE9D
:1000800073E080E090E076D060E08AE01BD168EE1B
:1000900073E080E090E06EC01F920F920FB60F9257
:1000A00011242F933F938F939F93AF93BF9380918E
:1000B000610090916200A0916300B0916400309162
:1000C000600026E0230F2D3720F40296A11DB11DFC
:1000D00005C029E8230F0396A11DB11D20936000E0
:1000E0008093610090936200A0936300B0936400DA
:1000F0008091650090916600A0916700B0916800C2
:100100000196A11DB11D8093650090936600A09398
:100110006700B0936800BF91AF919F918F913F911D
:100120002F910F900FBE0F901F9018953FB7F89426
:100130008091650090916600A0916700B091680081
:1001400022B708B600FE05C02F3F19F00196A11D89
:10015000B11D3FBF6627782F892F9A2F620F711D1F
:10016000811D911D43E0660F771F881F991F4A95D7
:10017000D1F708958F929F92AF92BF92CF92DF9264
:10018000EF92FF926B017C01D1DF4B015C01C11446
:10019000D104E104F104E1F0D5D0C8DF6819790990
:1001A0008A099B09683E73408105910580F321E02F
:1001B000C21AD108E108F10888EE880E83E0981E83
:1001C000A11CB11CC114D104E104F10431F7DFCF4B
:1001D000FF90EF90DF90CF90BF90AF909F908F9067
:1001E0000895789480B7826080BF80B7816080BFB7
:1001F00083B7826083BF83B7816083BF89B7816023
:1002000089BF1EBC8EB582608EBD8EB581608EBDED
:100210008FB581608FBD329A319A3098379A0895A0
:10022000823099F018F4813069F00895833019F024
:10023000843021F008958FB58F7702C08FB58F7D00
:100240008FBD089580B78F7702C080B78F7D80BF44
:100250000895CF93DF9390E0FC01E35DFF4F24917D
:10026000FC01E85CFF4F8491882349F190E0880FFE
:10027000991FFC01E75BFF4FA591B4918D5B9F4FE8
:10028000FC01C591D4919FB7611108C0F8948C917D
:10029000209582238C93888182230AC0623051F496
:1002A000F8948C91322F309583238C938881822B04
:1002B000888304C0F8948C91822B8C939FBFDF912C
:1002C000CF9108950F931F93CF93DF931F92CDB7D4
:1002D000DEB7282F30E0F901EE5DFF4F8491F90180
:1002E000E35DFF4F1491F901E85CFF4F0491002397
:1002F000C1F0882319F0698393DF6981E02FF0E072
:10030000EE0FFF1FED5BFF4FA591B4919FB7F894DF
:100310008C91611103C01095812301C0812B8C93B6
:100320009FBF0F90DF91CF911F910F910895089576
:1003300058DFFDDF9EDEC0E0D0E09EDE2097E9F3CF
:0A0340005FDEFBCF0895F894FFCFB5
:00000001FF
